{
	"contracts/Calculator.sol": {
		"Calculator": {
			"abi": [
				{
					"inputs": [
						{
							"internalType": "int256",
							"name": "num",
							"type": "int256"
						}
					],
					"name": "add",
					"outputs": [],
					"stateMutability": "nonpayable",
					"type": "function"
				},
				{
					"inputs": [],
					"name": "get",
					"outputs": [
						{
							"internalType": "int256",
							"name": "",
							"type": "int256"
						}
					],
					"stateMutability": "view",
					"type": "function"
				},
				{
					"inputs": [
						{
							"internalType": "int256",
							"name": "num",
							"type": "int256"
						}
					],
					"name": "multiply",
					"outputs": [],
					"stateMutability": "nonpayable",
					"type": "function"
				},
				{
					"inputs": [
						{
							"internalType": "int256",
							"name": "num1",
							"type": "int256"
						},
						{
							"internalType": "int256",
							"name": "num2",
							"type": "int256"
						}
					],
					"name": "subtract",
					"outputs": [
						{
							"internalType": "int256",
							"name": "",
							"type": "int256"
						}
					],
					"stateMutability": "nonpayable",
					"type": "function"
				}
			],
			"devdoc": {
				"kind": "dev",
				"methods": {},
				"version": 1
			},
			"evm": {
				"assembly": "    /* \"contracts/Calculator.sol\":57:454  contract Calculator {... */\n  mstore(0x40, 0x80)\n    /* \"contracts/Calculator.sol\":100:101  0 */\n  0x00\n    /* \"contracts/Calculator.sol\":84:101  int256 result = 0 */\n  dup1\n  sstore\n    /* \"contracts/Calculator.sol\":57:454  contract Calculator {... */\n  callvalue\n  dup1\n  iszero\n  tag_1\n  jumpi\n  0x00\n  dup1\n  revert\ntag_1:\n  pop\n  dataSize(sub_0)\n  dup1\n  dataOffset(sub_0)\n  0x00\n  codecopy\n  0x00\n  return\nstop\n\nsub_0: assembly {\n        /* \"contracts/Calculator.sol\":57:454  contract Calculator {... */\n      mstore(0x40, 0x80)\n      callvalue\n      dup1\n      iszero\n      tag_1\n      jumpi\n      0x00\n      dup1\n      revert\n    tag_1:\n      pop\n      jumpi(tag_2, lt(calldatasize, 0x04))\n      shr(0xe0, calldataload(0x00))\n      dup1\n      0x1df4f144\n      eq\n      tag_3\n      jumpi\n      dup1\n      0x6d4ce63c\n      eq\n      tag_4\n      jumpi\n      dup1\n      0x87db03b7\n      eq\n      tag_5\n      jumpi\n      dup1\n      0xb93ea812\n      eq\n      tag_6\n      jumpi\n    tag_2:\n      0x00\n      dup1\n      revert\n        /* \"contracts/Calculator.sol\":307:374  function multiply(int256 num) public {... */\n    tag_3:\n      tag_7\n      0x04\n      dup1\n      calldatasize\n      sub\n      dup2\n      add\n      swap1\n      tag_8\n      swap2\n      swap1\n      tag_9\n      jump\t// in\n    tag_8:\n      tag_10\n      jump\t// in\n    tag_7:\n      stop\n        /* \"contracts/Calculator.sol\":379:451  function get() public view returns(int256){... */\n    tag_4:\n      tag_11\n      tag_12\n      jump\t// in\n    tag_11:\n      mload(0x40)\n      tag_13\n      swap2\n      swap1\n      tag_14\n      jump\t// in\n    tag_13:\n      mload(0x40)\n      dup1\n      swap2\n      sub\n      swap1\n      return\n        /* \"contracts/Calculator.sol\":108:170  function add(int256 num) public {... */\n    tag_5:\n      tag_15\n      0x04\n      dup1\n      calldatasize\n      sub\n      dup2\n      add\n      swap1\n      tag_16\n      swap2\n      swap1\n      tag_9\n      jump\t// in\n    tag_16:\n      tag_17\n      jump\t// in\n    tag_15:\n      stop\n        /* \"contracts/Calculator.sol\":176:302  function subtract(int256 num1,int256 num2) public returns (int256){... */\n    tag_6:\n      tag_18\n      0x04\n      dup1\n      calldatasize\n      sub\n      dup2\n      add\n      swap1\n      tag_19\n      swap2\n      swap1\n      tag_20\n      jump\t// in\n    tag_19:\n      tag_21\n      jump\t// in\n    tag_18:\n      mload(0x40)\n      tag_22\n      swap2\n      swap1\n      tag_14\n      jump\t// in\n    tag_22:\n      mload(0x40)\n      dup1\n      swap2\n      sub\n      swap1\n      return\n        /* \"contracts/Calculator.sol\":307:374  function multiply(int256 num) public {... */\n    tag_10:\n        /* \"contracts/Calculator.sol\":364:367  num */\n      dup1\n        /* \"contracts/Calculator.sol\":354:360  result */\n      0x00\n      dup1\n        /* \"contracts/Calculator.sol\":354:367  result *= num */\n      dup3\n      dup3\n      sload\n      tag_24\n      swap2\n      swap1\n      tag_25\n      jump\t// in\n    tag_24:\n      swap3\n      pop\n      pop\n      dup2\n      swap1\n      sstore\n      pop\n        /* \"contracts/Calculator.sol\":307:374  function multiply(int256 num) public {... */\n      pop\n      jump\t// out\n        /* \"contracts/Calculator.sol\":379:451  function get() public view returns(int256){... */\n    tag_12:\n        /* \"contracts/Calculator.sol\":414:420  int256 */\n      0x00\n        /* \"contracts/Calculator.sol\":438:444  result */\n      dup1\n      sload\n        /* \"contracts/Calculator.sol\":431:444  return result */\n      swap1\n      pop\n        /* \"contracts/Calculator.sol\":379:451  function get() public view returns(int256){... */\n      swap1\n      jump\t// out\n        /* \"contracts/Calculator.sol\":108:170  function add(int256 num) public {... */\n    tag_17:\n        /* \"contracts/Calculator.sol\":160:163  num */\n      dup1\n        /* \"contracts/Calculator.sol\":150:156  result */\n      0x00\n      dup1\n        /* \"contracts/Calculator.sol\":150:163  result += num */\n      dup3\n      dup3\n      sload\n      tag_28\n      swap2\n      swap1\n      tag_29\n      jump\t// in\n    tag_28:\n      swap3\n      pop\n      pop\n      dup2\n      swap1\n      sstore\n      pop\n        /* \"contracts/Calculator.sol\":108:170  function add(int256 num) public {... */\n      pop\n      jump\t// out\n        /* \"contracts/Calculator.sol\":176:302  function subtract(int256 num1,int256 num2) public returns (int256){... */\n    tag_21:\n        /* \"contracts/Calculator.sol\":235:241  int256 */\n      0x00\n        /* \"contracts/Calculator.sol\":268:272  num2 */\n      dup2\n        /* \"contracts/Calculator.sol\":261:265  num1 */\n      dup4\n        /* \"contracts/Calculator.sol\":261:272  num1 - num2 */\n      tag_31\n      swap2\n      swap1\n      tag_32\n      jump\t// in\n    tag_31:\n        /* \"contracts/Calculator.sol\":252:258  result */\n      0x00\n        /* \"contracts/Calculator.sol\":252:272  result = num1 - num2 */\n      dup2\n      swap1\n      sstore\n      pop\n        /* \"contracts/Calculator.sol\":289:295  result */\n      sload(0x00)\n        /* \"contracts/Calculator.sol\":282:295  return result */\n      swap1\n      pop\n        /* \"contracts/Calculator.sol\":176:302  function subtract(int256 num1,int256 num2) public returns (int256){... */\n      swap3\n      swap2\n      pop\n      pop\n      jump\t// out\n        /* \"#utility.yul\":88:205   */\n    tag_34:\n        /* \"#utility.yul\":197:198   */\n      0x00\n        /* \"#utility.yul\":194:195   */\n      dup1\n        /* \"#utility.yul\":187:199   */\n      revert\n        /* \"#utility.yul\":334:410   */\n    tag_36:\n        /* \"#utility.yul\":370:377   */\n      0x00\n        /* \"#utility.yul\":399:404   */\n      dup2\n        /* \"#utility.yul\":388:404   */\n      swap1\n      pop\n        /* \"#utility.yul\":334:410   */\n      swap2\n      swap1\n      pop\n      jump\t// out\n        /* \"#utility.yul\":416:536   */\n    tag_37:\n        /* \"#utility.yul\":488:511   */\n      tag_47\n        /* \"#utility.yul\":505:510   */\n      dup2\n        /* \"#utility.yul\":488:511   */\n      tag_36\n      jump\t// in\n    tag_47:\n        /* \"#utility.yul\":481:486   */\n      dup2\n        /* \"#utility.yul\":478:512   */\n      eq\n        /* \"#utility.yul\":468:530   */\n      tag_48\n      jumpi\n        /* \"#utility.yul\":526:527   */\n      0x00\n        /* \"#utility.yul\":523:524   */\n      dup1\n        /* \"#utility.yul\":516:528   */\n      revert\n        /* \"#utility.yul\":468:530   */\n    tag_48:\n        /* \"#utility.yul\":416:536   */\n      pop\n      jump\t// out\n        /* \"#utility.yul\":542:679   */\n    tag_38:\n        /* \"#utility.yul\":587:592   */\n      0x00\n        /* \"#utility.yul\":625:631   */\n      dup2\n        /* \"#utility.yul\":612:632   */\n      calldataload\n        /* \"#utility.yul\":603:632   */\n      swap1\n      pop\n        /* \"#utility.yul\":641:673   */\n      tag_50\n        /* \"#utility.yul\":667:672   */\n      dup2\n        /* \"#utility.yul\":641:673   */\n      tag_37\n      jump\t// in\n    tag_50:\n        /* \"#utility.yul\":542:679   */\n      swap3\n      swap2\n      pop\n      pop\n      jump\t// out\n        /* \"#utility.yul\":685:1012   */\n    tag_9:\n        /* \"#utility.yul\":743:749   */\n      0x00\n        /* \"#utility.yul\":792:794   */\n      0x20\n        /* \"#utility.yul\":780:789   */\n      dup3\n        /* \"#utility.yul\":771:778   */\n      dup5\n        /* \"#utility.yul\":767:790   */\n      sub\n        /* \"#utility.yul\":763:795   */\n      slt\n        /* \"#utility.yul\":760:879   */\n      iszero\n      tag_52\n      jumpi\n        /* \"#utility.yul\":798:877   */\n      tag_53\n      tag_34\n      jump\t// in\n    tag_53:\n        /* \"#utility.yul\":760:879   */\n    tag_52:\n        /* \"#utility.yul\":918:919   */\n      0x00\n        /* \"#utility.yul\":943:995   */\n      tag_54\n        /* \"#utility.yul\":987:994   */\n      dup5\n        /* \"#utility.yul\":978:984   */\n      dup3\n        /* \"#utility.yul\":967:976   */\n      dup6\n        /* \"#utility.yul\":963:985   */\n      add\n        /* \"#utility.yul\":943:995   */\n      tag_38\n      jump\t// in\n    tag_54:\n        /* \"#utility.yul\":933:995   */\n      swap2\n      pop\n        /* \"#utility.yul\":889:1005   */\n      pop\n        /* \"#utility.yul\":685:1012   */\n      swap3\n      swap2\n      pop\n      pop\n      jump\t// out\n        /* \"#utility.yul\":1018:1133   */\n    tag_39:\n        /* \"#utility.yul\":1103:1126   */\n      tag_56\n        /* \"#utility.yul\":1120:1125   */\n      dup2\n        /* \"#utility.yul\":1103:1126   */\n      tag_36\n      jump\t// in\n    tag_56:\n        /* \"#utility.yul\":1098:1101   */\n      dup3\n        /* \"#utility.yul\":1091:1127   */\n      mstore\n        /* \"#utility.yul\":1018:1133   */\n      pop\n      pop\n      jump\t// out\n        /* \"#utility.yul\":1139:1357   */\n    tag_14:\n        /* \"#utility.yul\":1230:1234   */\n      0x00\n        /* \"#utility.yul\":1268:1270   */\n      0x20\n        /* \"#utility.yul\":1257:1266   */\n      dup3\n        /* \"#utility.yul\":1253:1271   */\n      add\n        /* \"#utility.yul\":1245:1271   */\n      swap1\n      pop\n        /* \"#utility.yul\":1281:1350   */\n      tag_58\n        /* \"#utility.yul\":1347:1348   */\n      0x00\n        /* \"#utility.yul\":1336:1345   */\n      dup4\n        /* \"#utility.yul\":1332:1349   */\n      add\n        /* \"#utility.yul\":1323:1329   */\n      dup5\n        /* \"#utility.yul\":1281:1350   */\n      tag_39\n      jump\t// in\n    tag_58:\n        /* \"#utility.yul\":1139:1357   */\n      swap3\n      swap2\n      pop\n      pop\n      jump\t// out\n        /* \"#utility.yul\":1363:1833   */\n    tag_20:\n        /* \"#utility.yul\":1429:1435   */\n      0x00\n        /* \"#utility.yul\":1437:1443   */\n      dup1\n        /* \"#utility.yul\":1486:1488   */\n      0x40\n        /* \"#utility.yul\":1474:1483   */\n      dup4\n        /* \"#utility.yul\":1465:1472   */\n      dup6\n        /* \"#utility.yul\":1461:1484   */\n      sub\n        /* \"#utility.yul\":1457:1489   */\n      slt\n        /* \"#utility.yul\":1454:1573   */\n      iszero\n      tag_60\n      jumpi\n        /* \"#utility.yul\":1492:1571   */\n      tag_61\n      tag_34\n      jump\t// in\n    tag_61:\n        /* \"#utility.yul\":1454:1573   */\n    tag_60:\n        /* \"#utility.yul\":1612:1613   */\n      0x00\n        /* \"#utility.yul\":1637:1689   */\n      tag_62\n        /* \"#utility.yul\":1681:1688   */\n      dup6\n        /* \"#utility.yul\":1672:1678   */\n      dup3\n        /* \"#utility.yul\":1661:1670   */\n      dup7\n        /* \"#utility.yul\":1657:1679   */\n      add\n        /* \"#utility.yul\":1637:1689   */\n      tag_38\n      jump\t// in\n    tag_62:\n        /* \"#utility.yul\":1627:1689   */\n      swap3\n      pop\n        /* \"#utility.yul\":1583:1699   */\n      pop\n        /* \"#utility.yul\":1738:1740   */\n      0x20\n        /* \"#utility.yul\":1764:1816   */\n      tag_63\n        /* \"#utility.yul\":1808:1815   */\n      dup6\n        /* \"#utility.yul\":1799:1805   */\n      dup3\n        /* \"#utility.yul\":1788:1797   */\n      dup7\n        /* \"#utility.yul\":1784:1806   */\n      add\n        /* \"#utility.yul\":1764:1816   */\n      tag_38\n      jump\t// in\n    tag_63:\n        /* \"#utility.yul\":1754:1816   */\n      swap2\n      pop\n        /* \"#utility.yul\":1709:1826   */\n      pop\n        /* \"#utility.yul\":1363:1833   */\n      swap3\n      pop\n      swap3\n      swap1\n      pop\n      jump\t// out\n        /* \"#utility.yul\":1839:2019   */\n    tag_40:\n        /* \"#utility.yul\":1887:1964   */\n      0x4e487b7100000000000000000000000000000000000000000000000000000000\n        /* \"#utility.yul\":1884:1885   */\n      0x00\n        /* \"#utility.yul\":1877:1965   */\n      mstore\n        /* \"#utility.yul\":1984:1988   */\n      0x11\n        /* \"#utility.yul\":1981:1982   */\n      0x04\n        /* \"#utility.yul\":1974:1989   */\n      mstore\n        /* \"#utility.yul\":2008:2012   */\n      0x24\n        /* \"#utility.yul\":2005:2006   */\n      0x00\n        /* \"#utility.yul\":1998:2013   */\n      revert\n        /* \"#utility.yul\":2025:2581   */\n    tag_25:\n        /* \"#utility.yul\":2064:2071   */\n      0x00\n        /* \"#utility.yul\":2087:2106   */\n      tag_66\n        /* \"#utility.yul\":2104:2105   */\n      dup3\n        /* \"#utility.yul\":2087:2106   */\n      tag_36\n      jump\t// in\n    tag_66:\n        /* \"#utility.yul\":2082:2106   */\n      swap2\n      pop\n        /* \"#utility.yul\":2120:2139   */\n      tag_67\n        /* \"#utility.yul\":2137:2138   */\n      dup4\n        /* \"#utility.yul\":2120:2139   */\n      tag_36\n      jump\t// in\n    tag_67:\n        /* \"#utility.yul\":2115:2139   */\n      swap3\n      pop\n        /* \"#utility.yul\":2174:2175   */\n      dup3\n        /* \"#utility.yul\":2171:2172   */\n      dup3\n        /* \"#utility.yul\":2167:2176   */\n      mul\n        /* \"#utility.yul\":2196:2225   */\n      tag_68\n        /* \"#utility.yul\":2213:2224   */\n      dup2\n        /* \"#utility.yul\":2196:2225   */\n      tag_36\n      jump\t// in\n    tag_68:\n        /* \"#utility.yul\":2185:2225   */\n      swap2\n      pop\n        /* \"#utility.yul\":2283:2349   */\n      0x8000000000000000000000000000000000000000000000000000000000000000\n        /* \"#utility.yul\":2280:2281   */\n      dup5\n        /* \"#utility.yul\":2277:2350   */\n      eq\n        /* \"#utility.yul\":2273:2274   */\n      0x00\n        /* \"#utility.yul\":2270:2271   */\n      dup5\n        /* \"#utility.yul\":2266:2275   */\n      slt\n        /* \"#utility.yul\":2262:2351   */\n      and\n        /* \"#utility.yul\":2259:2374   */\n      iszero\n      tag_69\n      jumpi\n        /* \"#utility.yul\":2354:2372   */\n      tag_70\n      tag_40\n      jump\t// in\n    tag_70:\n        /* \"#utility.yul\":2259:2374   */\n    tag_69:\n        /* \"#utility.yul\":2524:2525   */\n      dup3\n        /* \"#utility.yul\":2515:2522   */\n      dup3\n        /* \"#utility.yul\":2510:2526   */\n      sdiv\n        /* \"#utility.yul\":2507:2508   */\n      dup5\n        /* \"#utility.yul\":2504:2527   */\n      eq\n        /* \"#utility.yul\":2484:2485   */\n      dup4\n        /* \"#utility.yul\":2477:2486   */\n      iszero\n        /* \"#utility.yul\":2457:2541   */\n      or\n        /* \"#utility.yul\":2434:2574   */\n      tag_71\n      jumpi\n        /* \"#utility.yul\":2554:2572   */\n      tag_72\n      tag_40\n      jump\t// in\n    tag_72:\n        /* \"#utility.yul\":2434:2574   */\n    tag_71:\n        /* \"#utility.yul\":2072:2581   */\n      pop\n        /* \"#utility.yul\":2025:2581   */\n      swap3\n      swap2\n      pop\n      pop\n      jump\t// out\n        /* \"#utility.yul\":2587:2962   */\n    tag_29:\n        /* \"#utility.yul\":2626:2629   */\n      0x00\n        /* \"#utility.yul\":2645:2664   */\n      tag_74\n        /* \"#utility.yul\":2662:2663   */\n      dup3\n        /* \"#utility.yul\":2645:2664   */\n      tag_36\n      jump\t// in\n    tag_74:\n        /* \"#utility.yul\":2640:2664   */\n      swap2\n      pop\n        /* \"#utility.yul\":2678:2697   */\n      tag_75\n        /* \"#utility.yul\":2695:2696   */\n      dup4\n        /* \"#utility.yul\":2678:2697   */\n      tag_36\n      jump\t// in\n    tag_75:\n        /* \"#utility.yul\":2673:2697   */\n      swap3\n      pop\n        /* \"#utility.yul\":2720:2721   */\n      dup3\n        /* \"#utility.yul\":2717:2718   */\n      dup3\n        /* \"#utility.yul\":2713:2722   */\n      add\n        /* \"#utility.yul\":2706:2722   */\n      swap1\n      pop\n        /* \"#utility.yul\":2918:2919   */\n      dup3\n        /* \"#utility.yul\":2913:2916   */\n      dup2\n        /* \"#utility.yul\":2909:2920   */\n      slt\n        /* \"#utility.yul\":2902:2921   */\n      iszero\n        /* \"#utility.yul\":2898:2899   */\n      0x00\n        /* \"#utility.yul\":2895:2896   */\n      dup4\n        /* \"#utility.yul\":2891:2900   */\n      slt\n        /* \"#utility.yul\":2887:2922   */\n      and\n        /* \"#utility.yul\":2870:2871   */\n      dup4\n        /* \"#utility.yul\":2865:2868   */\n      dup3\n        /* \"#utility.yul\":2861:2872   */\n      slt\n        /* \"#utility.yul\":2856:2857   */\n      0x00\n        /* \"#utility.yul\":2853:2854   */\n      dup5\n        /* \"#utility.yul\":2849:2858   */\n      slt\n        /* \"#utility.yul\":2842:2859   */\n      iszero\n        /* \"#utility.yul\":2838:2873   */\n      and\n        /* \"#utility.yul\":2822:2932   */\n      or\n        /* \"#utility.yul\":2819:2955   */\n      iszero\n      tag_76\n      jumpi\n        /* \"#utility.yul\":2935:2953   */\n      tag_77\n      tag_40\n      jump\t// in\n    tag_77:\n        /* \"#utility.yul\":2819:2955   */\n    tag_76:\n        /* \"#utility.yul\":2587:2962   */\n      swap3\n      swap2\n      pop\n      pop\n      jump\t// out\n        /* \"#utility.yul\":2968:3340   */\n    tag_32:\n        /* \"#utility.yul\":3007:3011   */\n      0x00\n        /* \"#utility.yul\":3027:3046   */\n      tag_79\n        /* \"#utility.yul\":3044:3045   */\n      dup3\n        /* \"#utility.yul\":3027:3046   */\n      tag_36\n      jump\t// in\n    tag_79:\n        /* \"#utility.yul\":3022:3046   */\n      swap2\n      pop\n        /* \"#utility.yul\":3060:3079   */\n      tag_80\n        /* \"#utility.yul\":3077:3078   */\n      dup4\n        /* \"#utility.yul\":3060:3079   */\n      tag_36\n      jump\t// in\n    tag_80:\n        /* \"#utility.yul\":3055:3079   */\n      swap3\n      pop\n        /* \"#utility.yul\":3103:3104   */\n      dup3\n        /* \"#utility.yul\":3100:3101   */\n      dup3\n        /* \"#utility.yul\":3096:3105   */\n      sub\n        /* \"#utility.yul\":3088:3105   */\n      swap1\n      pop\n        /* \"#utility.yul\":3297:3298   */\n      dup2\n        /* \"#utility.yul\":3291:3295   */\n      dup2\n        /* \"#utility.yul\":3287:3299   */\n      slt\n        /* \"#utility.yul\":3283:3284   */\n      0x00\n        /* \"#utility.yul\":3280:3281   */\n      dup5\n        /* \"#utility.yul\":3276:3285   */\n      slt\n        /* \"#utility.yul\":3272:3300   */\n      and\n        /* \"#utility.yul\":3255:3256   */\n      dup3\n        /* \"#utility.yul\":3249:3253   */\n      dup3\n        /* \"#utility.yul\":3245:3257   */\n      sgt\n        /* \"#utility.yul\":3240:3241   */\n      0x00\n        /* \"#utility.yul\":3237:3238   */\n      dup6\n        /* \"#utility.yul\":3233:3242   */\n      slt\n        /* \"#utility.yul\":3226:3243   */\n      iszero\n        /* \"#utility.yul\":3222:3258   */\n      and\n        /* \"#utility.yul\":3206:3310   */\n      or\n        /* \"#utility.yul\":3203:3333   */\n      iszero\n      tag_81\n      jumpi\n        /* \"#utility.yul\":3313:3331   */\n      tag_82\n      tag_40\n      jump\t// in\n    tag_82:\n        /* \"#utility.yul\":3203:3333   */\n    tag_81:\n        /* \"#utility.yul\":2968:3340   */\n      swap3\n      swap2\n      pop\n      pop\n      jump\t// out\n\n    auxdata: 0xa26469706673582212207dbebdcf4ac03be5be884c408a9bd4044e2ab91bf1d7601f503b73c6b5f93e0b64736f6c634300081a0033\n}\n",
				"bytecode": {
					"linkReferences": {},
					"object": "60806040525f80553480156011575f80fd5b5061034e8061001f5f395ff3fe608060405234801561000f575f80fd5b506004361061004a575f3560e01c80631df4f1441461004e5780636d4ce63c1461006a57806387db03b714610088578063b93ea812146100a4575b5f80fd5b61006860048036038101906100639190610163565b6100d4565b005b6100726100ee565b60405161007f919061019d565b60405180910390f35b6100a2600480360381019061009d9190610163565b6100f6565b005b6100be60048036038101906100b991906101b6565b610110565b6040516100cb919061019d565b60405180910390f35b805f808282546100e49190610221565b9250508190555050565b5f8054905090565b805f808282546101069190610297565b9250508190555050565b5f818361011d91906102d8565b5f819055505f54905092915050565b5f80fd5b5f819050919050565b61014281610130565b811461014c575f80fd5b50565b5f8135905061015d81610139565b92915050565b5f602082840312156101785761017761012c565b5b5f6101858482850161014f565b91505092915050565b61019781610130565b82525050565b5f6020820190506101b05f83018461018e565b92915050565b5f80604083850312156101cc576101cb61012c565b5b5f6101d98582860161014f565b92505060206101ea8582860161014f565b9150509250929050565b7f4e487b71000000000000000000000000000000000000000000000000000000005f52601160045260245ffd5b5f61022b82610130565b915061023683610130565b925082820261024481610130565b91507f800000000000000000000000000000000000000000000000000000000000000084145f8412161561027b5761027a6101f4565b5b82820584148315176102905761028f6101f4565b5b5092915050565b5f6102a182610130565b91506102ac83610130565b92508282019050828112155f8312168382125f8412151617156102d2576102d16101f4565b5b92915050565b5f6102e282610130565b91506102ed83610130565b925082820390508181125f8412168282135f851215161715610312576103116101f4565b5b9291505056fea26469706673582212207dbebdcf4ac03be5be884c408a9bd4044e2ab91bf1d7601f503b73c6b5f93e0b64736f6c634300081a0033",
					"opcodes": "PUSH1 0x80 PUSH1 0x40 MSTORE PUSH0 DUP1 SSTORE CALLVALUE DUP1 ISZERO PUSH1 0x11 JUMPI PUSH0 DUP1 REVERT JUMPDEST POP PUSH2 0x34E DUP1 PUSH2 0x1F PUSH0 CODECOPY PUSH0 RETURN INVALID PUSH1 0x80 PUSH1 0x40 MSTORE CALLVALUE DUP1 ISZERO PUSH2 0xF JUMPI PUSH0 DUP1 REVERT JUMPDEST POP PUSH1 0x4 CALLDATASIZE LT PUSH2 0x4A JUMPI PUSH0 CALLDATALOAD PUSH1 0xE0 SHR DUP1 PUSH4 0x1DF4F144 EQ PUSH2 0x4E JUMPI DUP1 PUSH4 0x6D4CE63C EQ PUSH2 0x6A JUMPI DUP1 PUSH4 0x87DB03B7 EQ PUSH2 0x88 JUMPI DUP1 PUSH4 0xB93EA812 EQ PUSH2 0xA4 JUMPI JUMPDEST PUSH0 DUP1 REVERT JUMPDEST PUSH2 0x68 PUSH1 0x4 DUP1 CALLDATASIZE SUB DUP2 ADD SWAP1 PUSH2 0x63 SWAP2 SWAP1 PUSH2 0x163 JUMP JUMPDEST PUSH2 0xD4 JUMP JUMPDEST STOP JUMPDEST PUSH2 0x72 PUSH2 0xEE JUMP JUMPDEST PUSH1 0x40 MLOAD PUSH2 0x7F SWAP2 SWAP1 PUSH2 0x19D JUMP JUMPDEST PUSH1 0x40 MLOAD DUP1 SWAP2 SUB SWAP1 RETURN JUMPDEST PUSH2 0xA2 PUSH1 0x4 DUP1 CALLDATASIZE SUB DUP2 ADD SWAP1 PUSH2 0x9D SWAP2 SWAP1 PUSH2 0x163 JUMP JUMPDEST PUSH2 0xF6 JUMP JUMPDEST STOP JUMPDEST PUSH2 0xBE PUSH1 0x4 DUP1 CALLDATASIZE SUB DUP2 ADD SWAP1 PUSH2 0xB9 SWAP2 SWAP1 PUSH2 0x1B6 JUMP JUMPDEST PUSH2 0x110 JUMP JUMPDEST PUSH1 0x40 MLOAD PUSH2 0xCB SWAP2 SWAP1 PUSH2 0x19D JUMP JUMPDEST PUSH1 0x40 MLOAD DUP1 SWAP2 SUB SWAP1 RETURN JUMPDEST DUP1 PUSH0 DUP1 DUP3 DUP3 SLOAD PUSH2 0xE4 SWAP2 SWAP1 PUSH2 0x221 JUMP JUMPDEST SWAP3 POP POP DUP2 SWAP1 SSTORE POP POP JUMP JUMPDEST PUSH0 DUP1 SLOAD SWAP1 POP SWAP1 JUMP JUMPDEST DUP1 PUSH0 DUP1 DUP3 DUP3 SLOAD PUSH2 0x106 SWAP2 SWAP1 PUSH2 0x297 JUMP JUMPDEST SWAP3 POP POP DUP2 SWAP1 SSTORE POP POP JUMP JUMPDEST PUSH0 DUP2 DUP4 PUSH2 0x11D SWAP2 SWAP1 PUSH2 0x2D8 JUMP JUMPDEST PUSH0 DUP2 SWAP1 SSTORE POP PUSH0 SLOAD SWAP1 POP SWAP3 SWAP2 POP POP JUMP JUMPDEST PUSH0 DUP1 REVERT JUMPDEST PUSH0 DUP2 SWAP1 POP SWAP2 SWAP1 POP JUMP JUMPDEST PUSH2 0x142 DUP2 PUSH2 0x130 JUMP JUMPDEST DUP2 EQ PUSH2 0x14C JUMPI PUSH0 DUP1 REVERT JUMPDEST POP JUMP JUMPDEST PUSH0 DUP2 CALLDATALOAD SWAP1 POP PUSH2 0x15D DUP2 PUSH2 0x139 JUMP JUMPDEST SWAP3 SWAP2 POP POP JUMP JUMPDEST PUSH0 PUSH1 0x20 DUP3 DUP5 SUB SLT ISZERO PUSH2 0x178 JUMPI PUSH2 0x177 PUSH2 0x12C JUMP JUMPDEST JUMPDEST PUSH0 PUSH2 0x185 DUP5 DUP3 DUP6 ADD PUSH2 0x14F JUMP JUMPDEST SWAP2 POP POP SWAP3 SWAP2 POP POP JUMP JUMPDEST PUSH2 0x197 DUP2 PUSH2 0x130 JUMP JUMPDEST DUP3 MSTORE POP POP JUMP JUMPDEST PUSH0 PUSH1 0x20 DUP3 ADD SWAP1 POP PUSH2 0x1B0 PUSH0 DUP4 ADD DUP5 PUSH2 0x18E JUMP JUMPDEST SWAP3 SWAP2 POP POP JUMP JUMPDEST PUSH0 DUP1 PUSH1 0x40 DUP4 DUP6 SUB SLT ISZERO PUSH2 0x1CC JUMPI PUSH2 0x1CB PUSH2 0x12C JUMP JUMPDEST JUMPDEST PUSH0 PUSH2 0x1D9 DUP6 DUP3 DUP7 ADD PUSH2 0x14F JUMP JUMPDEST SWAP3 POP POP PUSH1 0x20 PUSH2 0x1EA DUP6 DUP3 DUP7 ADD PUSH2 0x14F JUMP JUMPDEST SWAP2 POP POP SWAP3 POP SWAP3 SWAP1 POP JUMP JUMPDEST PUSH32 0x4E487B7100000000000000000000000000000000000000000000000000000000 PUSH0 MSTORE PUSH1 0x11 PUSH1 0x4 MSTORE PUSH1 0x24 PUSH0 REVERT JUMPDEST PUSH0 PUSH2 0x22B DUP3 PUSH2 0x130 JUMP JUMPDEST SWAP2 POP PUSH2 0x236 DUP4 PUSH2 0x130 JUMP JUMPDEST SWAP3 POP DUP3 DUP3 MUL PUSH2 0x244 DUP2 PUSH2 0x130 JUMP JUMPDEST SWAP2 POP PUSH32 0x8000000000000000000000000000000000000000000000000000000000000000 DUP5 EQ PUSH0 DUP5 SLT AND ISZERO PUSH2 0x27B JUMPI PUSH2 0x27A PUSH2 0x1F4 JUMP JUMPDEST JUMPDEST DUP3 DUP3 SDIV DUP5 EQ DUP4 ISZERO OR PUSH2 0x290 JUMPI PUSH2 0x28F PUSH2 0x1F4 JUMP JUMPDEST JUMPDEST POP SWAP3 SWAP2 POP POP JUMP JUMPDEST PUSH0 PUSH2 0x2A1 DUP3 PUSH2 0x130 JUMP JUMPDEST SWAP2 POP PUSH2 0x2AC DUP4 PUSH2 0x130 JUMP JUMPDEST SWAP3 POP DUP3 DUP3 ADD SWAP1 POP DUP3 DUP2 SLT ISZERO PUSH0 DUP4 SLT AND DUP4 DUP3 SLT PUSH0 DUP5 SLT ISZERO AND OR ISZERO PUSH2 0x2D2 JUMPI PUSH2 0x2D1 PUSH2 0x1F4 JUMP JUMPDEST JUMPDEST SWAP3 SWAP2 POP POP JUMP JUMPDEST PUSH0 PUSH2 0x2E2 DUP3 PUSH2 0x130 JUMP JUMPDEST SWAP2 POP PUSH2 0x2ED DUP4 PUSH2 0x130 JUMP JUMPDEST SWAP3 POP DUP3 DUP3 SUB SWAP1 POP DUP2 DUP2 SLT PUSH0 DUP5 SLT AND DUP3 DUP3 SGT PUSH0 DUP6 SLT ISZERO AND OR ISZERO PUSH2 0x312 JUMPI PUSH2 0x311 PUSH2 0x1F4 JUMP JUMPDEST JUMPDEST SWAP3 SWAP2 POP POP JUMP INVALID LOG2 PUSH5 0x6970667358 0x22 SLT KECCAK256 PUSH30 0xBEBDCF4AC03BE5BE884C408A9BD4044E2AB91BF1D7601F503B73C6B5F93E SIGNEXTEND PUSH5 0x736F6C6343 STOP ADDMOD BYTE STOP CALLER "
				},
				"gasEstimates": {
					"creation": {
						"codeDepositCost": "169200",
						"executionCost": "5217",
						"totalCost": "174417"
					},
					"external": {
						"add(int256)": "infinite",
						"get()": "2432",
						"multiply(int256)": "infinite",
						"subtract(int256,int256)": "infinite"
					}
				},
				"methodIdentifiers": {
					"add(int256)": "87db03b7",
					"get()": "6d4ce63c",
					"multiply(int256)": "1df4f144",
					"subtract(int256,int256)": "b93ea812"
				}
			},
			"storageLayout": {
				"storage": [
					{
						"astId": 4,
						"contract": "contracts/Calculator.sol:Calculator",
						"label": "result",
						"offset": 0,
						"slot": "0",
						"type": "t_int256"
					}
				],
				"types": {
					"t_int256": {
						"encoding": "inplace",
						"label": "int256",
						"numberOfBytes": "32"
					}
				}
			},
			"userdoc": {
				"kind": "user",
				"methods": {},
				"version": 1
			}
		}
	}
}